{
  "contractName": "TrustedAP",
  "abi": [
    {
      "inputs": [],
      "stateMutability": "payable",
      "type": "constructor",
      "payable": true
    },
    {
      "anonymous": false,
      "inputs": [
        {
          "indexed": false,
          "internalType": "address",
          "name": "_chal",
          "type": "address"
        },
        {
          "indexed": false,
          "internalType": "address",
          "name": "_resp",
          "type": "address"
        },
        {
          "indexed": false,
          "internalType": "bytes32",
          "name": "_pkha",
          "type": "bytes32"
        },
        {
          "indexed": false,
          "internalType": "bytes32",
          "name": "_rspha",
          "type": "bytes32"
        }
      ],
      "name": "ResponseLogged",
      "type": "event"
    },
    {
      "inputs": [
        {
          "internalType": "address",
          "name": "",
          "type": "address"
        }
      ],
      "name": "apIdentifier",
      "outputs": [
        {
          "internalType": "bytes32",
          "name": "apDataHash",
          "type": "bytes32"
        },
        {
          "internalType": "address",
          "name": "owner",
          "type": "address"
        },
        {
          "internalType": "address",
          "name": "chair",
          "type": "address"
        }
      ],
      "stateMutability": "view",
      "type": "function",
      "constant": true
    },
    {
      "inputs": [
        {
          "internalType": "address",
          "name": "",
          "type": "address"
        }
      ],
      "name": "getChalResp",
      "outputs": [
        {
          "internalType": "uint256",
          "name": "challengeSeed",
          "type": "uint256"
        },
        {
          "internalType": "bytes32",
          "name": "hashOfResponse",
          "type": "bytes32"
        },
        {
          "internalType": "bytes32",
          "name": "hashOfPK",
          "type": "bytes32"
        },
        {
          "internalType": "address",
          "name": "challenger",
          "type": "address"
        },
        {
          "internalType": "address",
          "name": "responder",
          "type": "address"
        },
        {
          "internalType": "uint256",
          "name": "state",
          "type": "uint256"
        }
      ],
      "stateMutability": "view",
      "type": "function",
      "constant": true
    },
    {
      "inputs": [
        {
          "internalType": "address",
          "name": "newManager",
          "type": "address"
        }
      ],
      "name": "enstate",
      "outputs": [],
      "stateMutability": "nonpayable",
      "type": "function"
    },
    {
      "inputs": [
        {
          "internalType": "address",
          "name": "formerManager",
          "type": "address"
        }
      ],
      "name": "unenstate",
      "outputs": [],
      "stateMutability": "nonpayable",
      "type": "function"
    },
    {
      "inputs": [
        {
          "internalType": "address",
          "name": "newAP",
          "type": "address"
        },
        {
          "internalType": "bytes32",
          "name": "apDataHash",
          "type": "bytes32"
        }
      ],
      "name": "addAP",
      "outputs": [],
      "stateMutability": "payable",
      "type": "function",
      "payable": true
    },
    {
      "inputs": [
        {
          "internalType": "address",
          "name": "formerAP",
          "type": "address"
        }
      ],
      "name": "removeAP",
      "outputs": [],
      "stateMutability": "payable",
      "type": "function",
      "payable": true
    },
    {
      "inputs": [
        {
          "internalType": "address",
          "name": "unregistrant",
          "type": "address"
        }
      ],
      "name": "unregisterOther",
      "outputs": [],
      "stateMutability": "nonpayable",
      "type": "function"
    },
    {
      "inputs": [
        {
          "internalType": "address",
          "name": "badActor",
          "type": "address"
        }
      ],
      "name": "banish",
      "outputs": [],
      "stateMutability": "nonpayable",
      "type": "function"
    },
    {
      "inputs": [
        {
          "internalType": "address",
          "name": "pardonedActor",
          "type": "address"
        }
      ],
      "name": "unbanish",
      "outputs": [],
      "stateMutability": "nonpayable",
      "type": "function"
    },
    {
      "inputs": [
        {
          "internalType": "address",
          "name": "targetAP",
          "type": "address"
        }
      ],
      "name": "register",
      "outputs": [],
      "stateMutability": "payable",
      "type": "function",
      "payable": true
    },
    {
      "inputs": [],
      "name": "unregisterSelf",
      "outputs": [],
      "stateMutability": "nonpayable",
      "type": "function"
    },
    {
      "inputs": [
        {
          "internalType": "uint256",
          "name": "chSeed",
          "type": "uint256"
        }
      ],
      "name": "challenge",
      "outputs": [],
      "stateMutability": "payable",
      "type": "function",
      "payable": true
    },
    {
      "inputs": [
        {
          "internalType": "address",
          "name": "endUser",
          "type": "address"
        },
        {
          "internalType": "bytes32",
          "name": "respHash",
          "type": "bytes32"
        },
        {
          "internalType": "bytes32",
          "name": "pkHash",
          "type": "bytes32"
        }
      ],
      "name": "response",
      "outputs": [],
      "stateMutability": "nonpayable",
      "type": "function"
    }
  ],
  "bytecode": "0x6080604052336000806101000a81548173ffffffffffffffffffffffffffffffffffffffff021916908373ffffffffffffffffffffffffffffffffffffffff16021790555061203c806100536000396000f3fe6080604052600436106100c25760003560e01c8063ab82d9a01161007f578063ed07569911610059578063ed07569914610326578063edc4bc811461038b578063fcb57bde146103dc578063fe5030181461047b576100c2565b8063ab82d9a014610266578063d12b3d9c14610294578063ddbe690b146102e2576100c2565b80632621a745146100c75780634420e4861461011857806351744fb91461015c578063525bd43e146101ad5780636bafaa59146101fe5780637a6560c414610215575b600080fd5b3480156100d357600080fd5b50610116600480360360208110156100ea57600080fd5b81019080803573ffffffffffffffffffffffffffffffffffffffff16906020019092919050505061052f565b005b61015a6004803603602081101561012e57600080fd5b81019080803573ffffffffffffffffffffffffffffffffffffffff1690602001909291905050506106a7565b005b34801561016857600080fd5b506101ab6004803603602081101561017f57600080fd5b81019080803573ffffffffffffffffffffffffffffffffffffffff1690602001909291905050506109b9565b005b3480156101b957600080fd5b506101fc600480360360208110156101d057600080fd5b81019080803573ffffffffffffffffffffffffffffffffffffffff169060200190929190505050610a93565b005b34801561020a57600080fd5b50610213610b6c565b005b34801561022157600080fd5b506102646004803603602081101561023857600080fd5b81019080803573ffffffffffffffffffffffffffffffffffffffff169060200190929190505050610d6d565b005b6102926004803603602081101561027c57600080fd5b8101908080359060200190929190505050610f26565b005b6102e0600480360360408110156102aa57600080fd5b81019080803573ffffffffffffffffffffffffffffffffffffffff1690602001909291908035906020019092919050505061126d565b005b610324600480360360208110156102f857600080fd5b81019080803573ffffffffffffffffffffffffffffffffffffffff16906020019092919050505061155e565b005b34801561033257600080fd5b506103896004803603606081101561034957600080fd5b81019080803573ffffffffffffffffffffffffffffffffffffffff16906020019092919080359060200190929190803590602001909291905050506118f7565b005b34801561039757600080fd5b506103da600480360360208110156103ae57600080fd5b81019080803573ffffffffffffffffffffffffffffffffffffffff169060200190929190505050611d47565b005b3480156103e857600080fd5b5061042b600480360360208110156103ff57600080fd5b81019080803573ffffffffffffffffffffffffffffffffffffffff169060200190929190505050611eb8565b604051808481526020018373ffffffffffffffffffffffffffffffffffffffff1681526020018273ffffffffffffffffffffffffffffffffffffffff168152602001935050505060405180910390f35b34801561048757600080fd5b506104ca6004803603602081101561049e57600080fd5b81019080803573ffffffffffffffffffffffffffffffffffffffff169060200190929190505050611f22565b604051808781526020018681526020018581526020018473ffffffffffffffffffffffffffffffffffffffff1681526020018373ffffffffffffffffffffffffffffffffffffffff168152602001828152602001965050505050505060405180910390f35b60008054906101000a900473ffffffffffffffffffffffffffffffffffffffff1673ffffffffffffffffffffffffffffffffffffffff163373ffffffffffffffffffffffffffffffffffffffff1614806106155750600073ffffffffffffffffffffffffffffffffffffffff16600360003373ffffffffffffffffffffffffffffffffffffffff1673ffffffffffffffffffffffffffffffffffffffff16815260200190815260200160002060009054906101000a900473ffffffffffffffffffffffffffffffffffffffff1673ffffffffffffffffffffffffffffffffffffffff1614155b61061e57600080fd5b6762616e6973686564600560008373ffffffffffffffffffffffffffffffffffffffff1673ffffffffffffffffffffffffffffffffffffffff16815260200190815260200160002060006101000a81548173ffffffffffffffffffffffffffffffffffffffff021916908373ffffffffffffffffffffffffffffffffffffffff16021790555050565b60008054906101000a900473ffffffffffffffffffffffffffffffffffffffff1673ffffffffffffffffffffffffffffffffffffffff163373ffffffffffffffffffffffffffffffffffffffff161415801561079657506762616e697368656473ffffffffffffffffffffffffffffffffffffffff16600560003373ffffffffffffffffffffffffffffffffffffffff1673ffffffffffffffffffffffffffffffffffffffff16815260200190815260200160002060009054906101000a900473ffffffffffffffffffffffffffffffffffffffff1673ffffffffffffffffffffffffffffffffffffffff1614155b801561082d5750600073ffffffffffffffffffffffffffffffffffffffff16600360003373ffffffffffffffffffffffffffffffffffffffff1673ffffffffffffffffffffffffffffffffffffffff16815260200190815260200160002060009054906101000a900473ffffffffffffffffffffffffffffffffffffffff1673ffffffffffffffffffffffffffffffffffffffff16145b61083657600080fd5b600073ffffffffffffffffffffffffffffffffffffffff16600460008373ffffffffffffffffffffffffffffffffffffffff1673ffffffffffffffffffffffffffffffffffffffff16815260200190815260200160002060009054906101000a900473ffffffffffffffffffffffffffffffffffffffff1673ffffffffffffffffffffffffffffffffffffffff161415610938576040517f08c379a00000000000000000000000000000000000000000000000000000000081526004018080602001828103825260098152602001807f4e6f7420616e204150000000000000000000000000000000000000000000000081525060200191505060405180910390fd5b80600560003373ffffffffffffffffffffffffffffffffffffffff1673ffffffffffffffffffffffffffffffffffffffff16815260200190815260200160002060006101000a81548173ffffffffffffffffffffffffffffffffffffffff021916908373ffffffffffffffffffffffffffffffffffffffff16021790555050565b60008054906101000a900473ffffffffffffffffffffffffffffffffffffffff1673ffffffffffffffffffffffffffffffffffffffff163373ffffffffffffffffffffffffffffffffffffffff1614610a1157600080fd5b6000600360008373ffffffffffffffffffffffffffffffffffffffff1673ffffffffffffffffffffffffffffffffffffffff16815260200190815260200160002060006101000a81548173ffffffffffffffffffffffffffffffffffffffff021916908373ffffffffffffffffffffffffffffffffffffffff16021790555050565b60008054906101000a900473ffffffffffffffffffffffffffffffffffffffff1673ffffffffffffffffffffffffffffffffffffffff163373ffffffffffffffffffffffffffffffffffffffff1614610aeb57600080fd5b33600360008373ffffffffffffffffffffffffffffffffffffffff1673ffffffffffffffffffffffffffffffffffffffff16815260200190815260200160002060006101000a81548173ffffffffffffffffffffffffffffffffffffffff021916908373ffffffffffffffffffffffffffffffffffffffff16021790555050565b600073ffffffffffffffffffffffffffffffffffffffff16600560003373ffffffffffffffffffffffffffffffffffffffff1673ffffffffffffffffffffffffffffffffffffffff16815260200190815260200160002060009054906101000a900473ffffffffffffffffffffffffffffffffffffffff1673ffffffffffffffffffffffffffffffffffffffff1614158015610c9b57506762616e697368656473ffffffffffffffffffffffffffffffffffffffff16600560003373ffffffffffffffffffffffffffffffffffffffff1673ffffffffffffffffffffffffffffffffffffffff16815260200190815260200160002060009054906101000a900473ffffffffffffffffffffffffffffffffffffffff1673ffffffffffffffffffffffffffffffffffffffff1614155b610ca457600080fd5b6000600560003373ffffffffffffffffffffffffffffffffffffffff1673ffffffffffffffffffffffffffffffffffffffff16815260200190815260200160002060006101000a81548173ffffffffffffffffffffffffffffffffffffffff021916908373ffffffffffffffffffffffffffffffffffffffff1602179055506000600260003373ffffffffffffffffffffffffffffffffffffffff1673ffffffffffffffffffffffffffffffffffffffff16815260200190815260200160002060050181905550565b60008054906101000a900473ffffffffffffffffffffffffffffffffffffffff1673ffffffffffffffffffffffffffffffffffffffff163373ffffffffffffffffffffffffffffffffffffffff161480610e535750600073ffffffffffffffffffffffffffffffffffffffff16600360003373ffffffffffffffffffffffffffffffffffffffff1673ffffffffffffffffffffffffffffffffffffffff16815260200190815260200160002060009054906101000a900473ffffffffffffffffffffffffffffffffffffffff1673ffffffffffffffffffffffffffffffffffffffff1614155b610e5c57600080fd5b6000600560008373ffffffffffffffffffffffffffffffffffffffff1673ffffffffffffffffffffffffffffffffffffffff16815260200190815260200160002060006101000a81548173ffffffffffffffffffffffffffffffffffffffff021916908373ffffffffffffffffffffffffffffffffffffffff1602179055506000600260008373ffffffffffffffffffffffffffffffffffffffff1673ffffffffffffffffffffffffffffffffffffffff1681526020019081526020016000206005018190555050565b600073ffffffffffffffffffffffffffffffffffffffff16600560003373ffffffffffffffffffffffffffffffffffffffff1673ffffffffffffffffffffffffffffffffffffffff16815260200190815260200160002060009054906101000a900473ffffffffffffffffffffffffffffffffffffffff1673ffffffffffffffffffffffffffffffffffffffff161415801561105557506762616e697368656473ffffffffffffffffffffffffffffffffffffffff16600560003373ffffffffffffffffffffffffffffffffffffffff1673ffffffffffffffffffffffffffffffffffffffff16815260200190815260200160002060009054906101000a900473ffffffffffffffffffffffffffffffffffffffff1673ffffffffffffffffffffffffffffffffffffffff1614155b61105e57600080fd5b6001600260003373ffffffffffffffffffffffffffffffffffffffff1673ffffffffffffffffffffffffffffffffffffffff16815260200190815260200160002060050154106110ad57600080fd5b6000600560003373ffffffffffffffffffffffffffffffffffffffff1673ffffffffffffffffffffffffffffffffffffffff16815260200190815260200160002060009054906101000a900473ffffffffffffffffffffffffffffffffffffffff1690506040518060c001604052808381526020016000801b81526020016000801b81526020013373ffffffffffffffffffffffffffffffffffffffff1681526020018273ffffffffffffffffffffffffffffffffffffffff1681526020016001815250600260003373ffffffffffffffffffffffffffffffffffffffff1673ffffffffffffffffffffffffffffffffffffffff16815260200190815260200160002060008201518160000155602082015181600101556040820151816002015560608201518160030160006101000a81548173ffffffffffffffffffffffffffffffffffffffff021916908373ffffffffffffffffffffffffffffffffffffffff16021790555060808201518160040160006101000a81548173ffffffffffffffffffffffffffffffffffffffff021916908373ffffffffffffffffffffffffffffffffffffffff16021790555060a082015181600501559050505050565b60008054906101000a900473ffffffffffffffffffffffffffffffffffffffff1673ffffffffffffffffffffffffffffffffffffffff163373ffffffffffffffffffffffffffffffffffffffff1614806113535750600073ffffffffffffffffffffffffffffffffffffffff16600360003373ffffffffffffffffffffffffffffffffffffffff1673ffffffffffffffffffffffffffffffffffffffff16815260200190815260200160002060009054906101000a900473ffffffffffffffffffffffffffffffffffffffff1673ffffffffffffffffffffffffffffffffffffffff1614155b61135c57600080fd5b33600460008473ffffffffffffffffffffffffffffffffffffffff1673ffffffffffffffffffffffffffffffffffffffff16815260200190815260200160002060006101000a81548173ffffffffffffffffffffffffffffffffffffffff021916908373ffffffffffffffffffffffffffffffffffffffff16021790555060405180606001604052808281526020013373ffffffffffffffffffffffffffffffffffffffff168152602001600360003373ffffffffffffffffffffffffffffffffffffffff1673ffffffffffffffffffffffffffffffffffffffff16815260200190815260200160002060009054906101000a900473ffffffffffffffffffffffffffffffffffffffff1673ffffffffffffffffffffffffffffffffffffffff16815250600160008473ffffffffffffffffffffffffffffffffffffffff1673ffffffffffffffffffffffffffffffffffffffff1681526020019081526020016000206000820151816000015560208201518160010160006101000a81548173ffffffffffffffffffffffffffffffffffffffff021916908373ffffffffffffffffffffffffffffffffffffffff16021790555060408201518160020160006101000a81548173ffffffffffffffffffffffffffffffffffffffff021916908373ffffffffffffffffffffffffffffffffffffffff1602179055509050505050565b60008054906101000a900473ffffffffffffffffffffffffffffffffffffffff1673ffffffffffffffffffffffffffffffffffffffff163373ffffffffffffffffffffffffffffffffffffffff1614806116445750600073ffffffffffffffffffffffffffffffffffffffff16600360003373ffffffffffffffffffffffffffffffffffffffff1673ffffffffffffffffffffffffffffffffffffffff16815260200190815260200160002060009054906101000a900473ffffffffffffffffffffffffffffffffffffffff1673ffffffffffffffffffffffffffffffffffffffff1614155b61164d57600080fd5b600073ffffffffffffffffffffffffffffffffffffffff16600460008373ffffffffffffffffffffffffffffffffffffffff1673ffffffffffffffffffffffffffffffffffffffff16815260200190815260200160002060009054906101000a900473ffffffffffffffffffffffffffffffffffffffff1673ffffffffffffffffffffffffffffffffffffffff16141561174f576040517f08c379a00000000000000000000000000000000000000000000000000000000081526004018080602001828103825260098152602001807f4e6f7420616e204150000000000000000000000000000000000000000000000081525060200191505060405180910390fd5b6000600460008373ffffffffffffffffffffffffffffffffffffffff1673ffffffffffffffffffffffffffffffffffffffff16815260200190815260200160002060006101000a81548173ffffffffffffffffffffffffffffffffffffffff021916908373ffffffffffffffffffffffffffffffffffffffff16021790555060405180606001604052806000801b8152602001600073ffffffffffffffffffffffffffffffffffffffff168152602001600073ffffffffffffffffffffffffffffffffffffffff16815250600160008373ffffffffffffffffffffffffffffffffffffffff1673ffffffffffffffffffffffffffffffffffffffff1681526020019081526020016000206000820151816000015560208201518160010160006101000a81548173ffffffffffffffffffffffffffffffffffffffff021916908373ffffffffffffffffffffffffffffffffffffffff16021790555060408201518160020160006101000a81548173ffffffffffffffffffffffffffffffffffffffff021916908373ffffffffffffffffffffffffffffffffffffffff16021790555090505050565b600073ffffffffffffffffffffffffffffffffffffffff16600460003373ffffffffffffffffffffffffffffffffffffffff1673ffffffffffffffffffffffffffffffffffffffff16815260200190815260200160002060009054906101000a900473ffffffffffffffffffffffffffffffffffffffff1673ffffffffffffffffffffffffffffffffffffffff16141561199057600080fd5b6001600260008573ffffffffffffffffffffffffffffffffffffffff1673ffffffffffffffffffffffffffffffffffffffff1681526020019081526020016000206005015414611a48576040517f08c379a00000000000000000000000000000000000000000000000000000000081526004018080602001828103825260148152602001807f4368616c6c656e6765206e6f742069737375656400000000000000000000000081525060200191505060405180910390fd5b611a50611f9e565b600260008573ffffffffffffffffffffffffffffffffffffffff1673ffffffffffffffffffffffffffffffffffffffff1681526020019081526020016000206040518060c00160405290816000820154815260200160018201548152602001600282015481526020016003820160009054906101000a900473ffffffffffffffffffffffffffffffffffffffff1673ffffffffffffffffffffffffffffffffffffffff1673ffffffffffffffffffffffffffffffffffffffff1681526020016004820160009054906101000a900473ffffffffffffffffffffffffffffffffffffffff1673ffffffffffffffffffffffffffffffffffffffff1673ffffffffffffffffffffffffffffffffffffffff16815260200160058201548152505090506040518060c00160405280826000015181526020018481526020018381526020018573ffffffffffffffffffffffffffffffffffffffff1681526020013373ffffffffffffffffffffffffffffffffffffffff1681526020016002815250600260008673ffffffffffffffffffffffffffffffffffffffff1673ffffffffffffffffffffffffffffffffffffffff16815260200190815260200160002060008201518160000155602082015181600101556040820151816002015560608201518160030160006101000a81548173ffffffffffffffffffffffffffffffffffffffff021916908373ffffffffffffffffffffffffffffffffffffffff16021790555060808201518160040160006101000a81548173ffffffffffffffffffffffffffffffffffffffff021916908373ffffffffffffffffffffffffffffffffffffffff16021790555060a082015181600501559050507fbac48d56dd95b299efbf5c00726561538534147ee1828768215063d8ef3b623384338585604051808573ffffffffffffffffffffffffffffffffffffffff1681526020018473ffffffffffffffffffffffffffffffffffffffff16815260200183815260200182815260200194505050505060405180910390a150505050565b60008054906101000a900473ffffffffffffffffffffffffffffffffffffffff1673ffffffffffffffffffffffffffffffffffffffff163373ffffffffffffffffffffffffffffffffffffffff161480611e2d5750600073ffffffffffffffffffffffffffffffffffffffff16600360003373ffffffffffffffffffffffffffffffffffffffff1673ffffffffffffffffffffffffffffffffffffffff16815260200190815260200160002060009054906101000a900473ffffffffffffffffffffffffffffffffffffffff1673ffffffffffffffffffffffffffffffffffffffff1614155b611e3657600080fd5b6000600560008373ffffffffffffffffffffffffffffffffffffffff1673ffffffffffffffffffffffffffffffffffffffff16815260200190815260200160002060006101000a81548173ffffffffffffffffffffffffffffffffffffffff021916908373ffffffffffffffffffffffffffffffffffffffff16021790555050565b60016020528060005260406000206000915090508060000154908060010160009054906101000a900473ffffffffffffffffffffffffffffffffffffffff16908060020160009054906101000a900473ffffffffffffffffffffffffffffffffffffffff16905083565b60026020528060005260406000206000915090508060000154908060010154908060020154908060030160009054906101000a900473ffffffffffffffffffffffffffffffffffffffff16908060040160009054906101000a900473ffffffffffffffffffffffffffffffffffffffff16908060050154905086565b6040518060c00160405280600081526020016000801916815260200160008019168152602001600073ffffffffffffffffffffffffffffffffffffffff168152602001600073ffffffffffffffffffffffffffffffffffffffff16815260200160008152509056fea2646970667358221220afc92259319100075c4cf1055da2e3626c24cc3a85cbb106bc5f9dc7b28ad2cf64736f6c63430007050033",
  "immutableReferences": {},
  "source": "pragma solidity ^0.7.3;\r\n    // SPDX-License-Identifier: UNLICENSED\r\n    \r\ncontract TrustedAP {\r\n\r\n   ////////////////// variables and data structures //////////////////\r\n   \r\n    address chairperson;\r\n\r\n    struct apDetails{ \r\n        bytes32 apDataHash;\r\n        address owner;\r\n        address chair;\r\n    }\r\n    \r\n    struct challengeResponsePack{\r\n        uint challengeSeed;\r\n        bytes32 hashOfResponse;\r\n        bytes32 hashOfPK;\r\n        address challenger;\r\n        address responder;\r\n        uint state;\r\n    }\r\n    \r\n    mapping (address=>apDetails) public apIdentifier;\r\n    mapping (address=>challengeResponsePack) public getChalResp;\r\n    mapping (address=>address) enstatedBy;\r\n    mapping (address=>address) ownedBy;\r\n    mapping (address=>address) registeredTo;\r\n    \r\n    \r\n    //////////////////  modifiers  //////////////////\r\n\r\n    modifier onlyChairperson{ \r\n        require(msg.sender==chairperson);\r\n        _;\r\n    }\r\n    modifier onlyAdmins{ \r\n        require(msg.sender==chairperson || enstatedBy[msg.sender]!=address(0x0));\r\n        _;\r\n    }\r\n    modifier onlyAP{ \r\n        require(ownedBy[msg.sender]!=address(0x0));\r\n        _;\r\n    }\r\n    modifier validEndUser{ \r\n        require(msg.sender!=chairperson && registeredTo[msg.sender]!=address(0x62616e6973686564) && enstatedBy[msg.sender]==address(0x0));\r\n        _;\r\n    }\r\n    modifier connectedEndUser{\r\n        require(registeredTo[msg.sender]!=address(0x0) && registeredTo[msg.sender]!=address(0x62616e6973686564));\r\n        _;\r\n    }\r\n    modifier newChallenge {\r\n        require(getChalResp[msg.sender].state < 1);\r\n        _;\r\n    }\r\n    \r\n    \r\n    //////////////////  constructor  //////////////////\r\n    \r\n    constructor() payable { \r\n        chairperson=msg.sender;\r\n    }\r\n    \r\n    \r\n    ////////////////////////////  event  ///////////////////////////  \r\n    \r\n    event ResponseLogged(address _chal, address _resp, bytes32 _pkha, bytes32 _rspha);\r\n    \r\n    \r\n    //////////////////  Adminstrative Functions  //////////////////\r\n\r\n    function enstate(address newManager) onlyChairperson public {\r\n        enstatedBy[newManager]=msg.sender;\r\n    }\r\n    \r\n    function unenstate(address formerManager) onlyChairperson public{\r\n        enstatedBy[formerManager]=address(0x0);\r\n    }\r\n    \r\n    function addAP(address newAP, bytes32 apDataHash) \r\n        onlyAdmins payable public{ \r\n        ownedBy[newAP]=msg.sender;\r\n        apIdentifier[newAP]=apDetails(apDataHash, msg.sender, enstatedBy[msg.sender]);\r\n    }\r\n    \r\n    function removeAP(address formerAP) onlyAdmins payable public{ \r\n        require(ownedBy[formerAP]!=address(0x0), \"Not an AP\");\r\n        ownedBy[formerAP]=address(0x0);\r\n        apIdentifier[formerAP]=apDetails(0x0,address(0x0),address(0x0));\r\n    }\r\n    \r\n    function unregisterOther(address unregistrant) onlyAdmins public {\r\n        registeredTo[unregistrant]=address(0x0);\r\n        getChalResp[unregistrant].state=0;\r\n    }\r\n    \r\n    function banish(address badActor) onlyAdmins public{\r\n        registeredTo[badActor]=address(0x62616e6973686564);\r\n    }\r\n    \r\n    function unbanish(address pardonedActor) onlyAdmins public{\r\n        registeredTo[pardonedActor]=address(0x0);\r\n    }\r\n    \r\n    \r\n    //////////////////  End User-AP Exchanges  //////////////////\r\n    \r\n    function register (address targetAP) validEndUser payable public{ \r\n        require(ownedBy[targetAP]!=address(0x0), \"Not an AP\");\r\n        registeredTo[msg.sender]=targetAP;\r\n    }\r\n\r\n    function unregisterSelf() connectedEndUser public{\r\n        registeredTo[msg.sender]=address(0x0);\r\n        getChalResp[msg.sender].state=0;\r\n    }  \r\n    \r\n    // TODO: Consider implementation using external memory and application-layer connection\r\n    function challenge(uint chSeed) connectedEndUser newChallenge payable public{\r\n    \taddress targetAP = registeredTo[msg.sender]; \r\n        getChalResp[msg.sender]=challengeResponsePack(chSeed, 0x0, 0x0, msg.sender, targetAP, 1);\r\n    }\r\n    \r\n    function response(address endUser, bytes32 respHash, bytes32 pkHash) onlyAP public{\r\n        require (getChalResp[endUser].state == 1, \"Challenge not issued\");\r\n        challengeResponsePack memory origChal = getChalResp[endUser];\r\n        getChalResp[endUser]=challengeResponsePack(\r\n            origChal.challengeSeed, respHash, pkHash, endUser, msg.sender, 2);\r\n        \r\n        emit ResponseLogged(endUser, msg.sender, respHash, pkHash);\r\n    }\r\n}\r\n",
  "sourcePath": "/home/pcfox/CurrentQuarter/cse526/TrustedAP-Dapp-Infura/AllFeatures/TrustedAP-contract/contracts/TrustedAP.sol",
  "compiler": {
    "name": "solc",
    "version": "0.7.5+commit.eb77ed08.Emscripten.clang"
  },
  "schemaVersion": "3.2.5",
  "updatedAt": "2020-12-06T21:02:01.460Z",
  "networkType": "ethereum",
  "devdoc": {
    "kind": "dev",
    "methods": {},
    "version": 1
  },
  "userdoc": {
    "kind": "user",
    "methods": {},
    "version": 1
  }
}